:0400000035EF0BF0DD
:08000800046ED8CF05F0E0CF33
:1000100006F00001E9CF0CF0EACF07F0E1CF08F0DD
:10002000E2CF09F0D9CF0AF0DACF0BF0F3CF12F01C
:10003000F4CF13F0FACF14F000C00EF001C00FF0AF
:1000400002C010F003C011F09DA02AEF00F09EB096
:10005000A9EF00F09DAA30EF00F09EBA1FEF01F06B
:100060000EC000F00FC001F010C002F011C003F08C
:100070000CC0E9FF07C0EAFF078E08C0E1FF09C016
:10008000E2FF0AC0D9FF0BC0DAFF12C0F3FF13C0B2
:10009000F4FF14C0FAFF045006C0E0FF05C0D8FF0B
:1000A00010005B454550524F4D5D205361766520F1
:1000B000736B6970706564202D20696E76616C6960
:1000C0006420737461746520646174610D0A0000BA
:1000D0005B454550524F4D5D2053746174657320EC
:1000E00073617665640D0A005B454550524F4D5D66
:1000F000204E6F207361766564207374617465208F
:10010000286D616769633D30782530325829202D8C
:100110003E2064656661756C74696E67204F464663
:100120000D0A00005B454550524F4D5D20537461F0
:1001300074657320726573746F7265643A20256309
:1001400025632563256325632563256325630D0AE0
:1001500000007B2B850ECF6EEE0ECE6E7B5113080A
:10016000D8B06AD07B6B7C2B265201E02606275242
:1001700001E02706285201E02806295201E029065D
:100180002A5201E02A062B5201E02B062C5201E0F4
:100190002C062D5201E02D067C513A084DE27C6B75
:1001A0007D2B7F2B7F510A0801E27F6B802B8051D2
:1001B0000A0801E2806B280E8125B26F000E8221B1
:1001C000B36FF250006EF29EB2C0A9FF7EC0A8FFCE
:1001D000A69CA69EA6840F01550EA76EAA0EA76E1A
:1001E000A682A6B2FED7A6940050F212290E0001F4
:1001F0008125B26F000E8221B36FF250006EF29E25
:10020000B2C0A9FF7DC0A8FFA69CA69EA6840F0130
:10021000550EA76EAA0EA76EA682A6B2FED7A6940A
:100220000050F21200017D513A0802E27D6B7E2BF4
:100230007E51170801E27E6B9E9030EF00F0ABA27A
:1002400003D0AB98AB8831D0ABA404D09EAAFED724
:10025000AE502BD09EAAFED7AECFB2F0B25141081D
:10026000D8A423D0B36BB351360816E39EAAFED7A9
:10027000AECFB4F0036AB3512E0FE96E000E032027
:10028000EA6EB4C0EFFFB32BB351220804E2B451BD
:100290002A08D8B401D0E7D7036AB3512E0FE96E0C
:1002A000000E0320EA6EEF6A25829E9A30EF00F07E
:1002B0005B50415253455D2053686F7274207061EA
:1002C000636B65742028256420746F6B656E7329D9
:1002D000206469736361726465640D0A00005B5099
:1002E000415253455D2056616C7665206E756D6296
:1002F0006572206D69736D617463682064697363EE
:1003000061726465640D0A002020766E6F3A2025C4
:100310006320256320256320256320256320256332
:100320002025632025630D0A00005B504152534590
:100330005D20496E76616C69642073746174652018
:1003400063686172206469736361726465640D0A35
:10035000000020207374617465733A20256325635F
:100360002563256325632563256325630D0A000046
:100370000D0A3D3D3D2050617273656420506163FC
:100380006B6574203D3D3D0D0A00536C61766549F7
:10039000443A2025630D0A0054696D652020203AF7
:1003A0002025730D0A0056313A256320533A256300
:1003B000202056323A256320533A256320205633B5
:1003C0003A256320533A2563202056343A2563208A
:1003D000533A25630D0A000056353A256320533AF7
:1003E0002563202056363A256320533A2563202082
:1003F00056373A256320533A2563202056383A254C
:100400006320533A25630D0A00003D3D3D3D3D3DCF
:100410003D3D3D3D3D3D3D3D3D3D3D3D3D3D3D0D3C
:100420000A00370ECD6ECC6A850ECF6EEE0ECE6E04
:100430009D807DEF0BF00900F6CFA2F0F7CFA3F07F
:10044000F5509EA8FED7AD6EA2C0F6FFA3C0F7FF81
:10045000A12FF1D712008DBF10D00F0E006E8C3976
:1004600000160A0E005C03E2300E002602D08D5109
:10047000002600509EA8FED7AD6E0F0E8C170A0EF8
:100480008C5D02E2300E02D08D9F8D518C278C51F5
:100490009EA8FED7AD6E3CEF04F0A151300805E0F8
:1004A000A151310802E0000E01D0010E016E1200D0
:1004B0000900F5520DE0F6CFA1F0F7CFA2F0F5500C
:1004C0009EA8FED7AD6EA1C0F6FFA2C0F7FFF0D781
:1004D00012001CC0A1F0E1DF015223E01DC0A1F019
:1004E000DCDF01521EE01EC0A1F0D7DF015219E08F
:1004F0001FC0A1F0D2DF015214E020C0A1F0CDDF77
:1005000001520FE021C0A1F0C8DF01520AE022C071
:10051000A1F0C3DF015205E023C0A1F0BEDF01520C
:1005200006E1A20EF66E000EF76EC2DF8AD1F2501F
:10053000006EF29EA96AA50EA86EA69CA69EA68431
:100540000F01550EA76EAA0EA76EA682A6B2FED701
:10055000A6940050F212F2CF00F0F29E010EA96EA6
:100560001CC0A8FFA69CA69EA684550EA76EAA0E28
:10057000A76EA682A6B2FED7A6940050F212F2CFC2
:1005800000F0F29E020EA96E1DC0A8FFA69CA69EBA
:10059000A684550EA76EAA0EA76EA682A6B2FED797
:1005A000A6940050F212F2CF00F0F29E030EA96E54
:1005B0001EC0A8FFA69CA69EA684550EA76EAA0ED6
:1005C000A76EA682A6B2FED7A6940050F212F2CF72
:1005D00000F0F29E040EA96E1FC0A8FFA69CA69E66
:1005E000A684550EA76EAA0EA76EA682A6B2FED747
:1005F000A6940050F212F2CF00F0F29E050EA96E02
:1006000020C0A8FFA69CA69EA684550EA76EAA0E83
:10061000A76EA682A6B2FED7A6940050F212F2CF21
:1006200000F0F29E060EA96E21C0A8FFA69CA69E11
:10063000A684550EA76EAA0EA76EA682A6B2FED7F6
:10064000A6940050F212F2CF00F0F29E070EA96EAF
:1006500022C0A8FFA69CA69EA684550EA76EAA0E31
:10066000A76EA682A6B2FED7A6940050F212F2CFD1
:1006700000F0F29E080EA96E23C0A8FFA69CA69EBD
:10068000A684550EA76EAA0EA76EA682A6B2FED7A6
:10069000A6940050F212000E24B0010E00018C6FDF
:1006A000F250006EF29E090EA96E8CC0A8FFA69CA7
:1006B000A69EA6840F01550EA76EAA0EA76EA6824F
:1006C000A6B2FED7A6940050F212000E24B2010E7C
:1006D00000018C6FF250006EF29E0A0EA96E8CC063
:1006E000A8FFA69CA69EA6840F01550EA76EAA0E73
:1006F000A76EA682A6B2FED7A6940050F212000EF4
:1007000024B4010E00018C6FF250006EF29E0B0EAD
:10071000A96E8CC0A8FFA69CA69EA6840F01550EAC
:10072000A76EAA0EA76EA682A6B2FED7A694005008
:10073000F212000E24B6010E00018C6FF250006E12
:10074000F29E0C0EA96E8CC0A8FFA69CA69EA68445
:100750000F01550EA76EAA0EA76EA682A6B2FED7EF
:10076000A6940050F212000E24B8010E00018C6F06
:10077000F250006EF29E0D0EA96E8CC0A8FFA69CD2
:10078000A69EA6840F01550EA76EAA0EA76EA6827E
:10079000A6B2FED7A6940050F212000E24BA010EA3
:1007A00000018C6FF250006EF29E0E0EA96E8CC08E
:1007B000A8FFA69CA69EA6840F01550EA76EAA0EA2
:1007C000A76EA682A6B2FED7A6940050F212000E23
:1007D00024BC010E00018C6FF250006EF29E0F0ED1
:1007E000A96E8CC0A8FFA69CA69EA6840F01550EDC
:1007F000A76EAA0EA76EA682A6B2FED7A694005038
:10080000F212000E24BE010E00018C6FF250006E39
:10081000F29E100EA96E8CC0A8FFA69CA69EA68470
:100820000F01550EA76EAA0EA76EA682A6B2FED71E
:10083000A6940050F212D00EF66E000EF76E000174
:1008400037DE1200F2CF8CF0F29EA96AA69CA69E1B
:10085000A680A8508CBFF28E836F8351A50836E026
:10086000E80EF66E000EF76E210EA16FE4DD83C078
:100870008CF0370E8D6FEFD50D0EF66E010EF76E04
:10088000150EA16FD8DD300E1C6E1D6E1E6E1F6E14
:10089000206E216E226E236E24902492249424963E
:1008A0002498249A249C249E93908A9093928A92CE
:1008B00093948A9493968A9693988A98939A8A9A0C
:1008C000939C8A9C939E8A9E04DE97D1F2CF8CF0F3
:1008D000F29E010EA96EA69CA69EA680A8508CBF73
:1008E000F28E846FF2CF8DF0F29E020EA96EA69C5E
:1008F000A69EA680A8508DBFF28E856FF2CF8EF097
:10090000F29E030EA96EA69CA69EA680A8508EBF3E
:10091000F28E866FF2CF8FF0F29E040EA96EA69C27
:10092000A69EA680A8508FBFF28E876FF2CF90F060
:10093000F29E050EA96EA69CA69EA680A85090BF0A
:10094000F28E886FF2CF91F0F29E060EA96EA69CF1
:10095000A69EA680A85091BFF28E896FF2CF92F02A
:10096000F29E070EA96EA69CA69EA680A85092BFD6
:10097000F28E8A6FF2CF93F0F29E080EA96EA69CBB
:10098000A69EA680A85093BFF28E8B6F84C0A1F064
:1009900084DD015202E0845101D0300E1C6E85C00E
:1009A000A1F07BDD015202E0855101D0300E1D6EB9
:1009B00086C0A1F072DD015202E0865101D0300EF6
:1009C0001E6E87C0A1F069DD015202E0875101D09F
:1009D000300E1F6E88C0A1F060DD015202E0885128
:1009E00001D0300E206E89C0A1F057DD015202E027
:1009F000895101D0300E216E8AC0A1F04EDD015226
:100A000002E08A5101D0300E226E8BC0A1F045DD8C
:100A1000015202E08B5101D0300E236E2490F2CFB0
:100A20008CF0F29E090EA96EA69CA69EA680A850E8
:100A30008CBFF28E016E01A001D024802492F2CFEF
:100A40008CF0F29E0A0EA96EA69CA69EA680A850C7
:100A50008CBFF28E016E01A001D024822494F2CFCB
:100A60008CF0F29E0B0EA96EA69CA69EA680A850A6
:100A70008CBFF28E016E01A001D024842496F2CFA7
:100A80008CF0F29E0C0EA96EA69CA69EA680A85085
:100A90008CBFF28E016E01A001D024862498F2CF83
:100AA0008CF0F29E0D0EA96EA69CA69EA680A85064
:100AB0008CBFF28E016E01A001D02488249AF2CF5F
:100AC0008CF0F29E0E0EA96EA69CA69EA680A85043
:100AD0008CBFF28E016E01A001D0248A249CF2CF3B
:100AE0008CF0F29E0F0EA96EA69CA69EA680A85022
:100AF0008CBFF28E016E01A001D0248C249EF2CF17
:100B00008CF0F29E100EA96EA69CA69EA680A85000
:100B10008CBFF28E016E01A001D0248E1C503108D2
:100B200003E193908A8002D093908A901D503108FF
:100B300003E193928A8202D093928A921E503108E6
:100B400003E193948A8402D093948A941F503108CD
:100B500003E193968A8602D093968A9620503108B4
:100B600003E193988A8802D093988A98215031089B
:100B700003E1939A8A8A02D0939A8A9A2250310882
:100B800003E1939C8A8C02D0939C8A9C2350310869
:100B900003E1939E8A8E02D0939E8A9E240EF66E67
:100BA000010EF76E1A0EA16F46DC1C509EA8FED7F0
:100BB000AD6E1D509EA8FED7AD6E1E509EA8FED7EE
:100BC000AD6E1F509EA8FED7AD6E20509EA8FED7DA
:100BD000AD6E21509EA8FED7AD6E22509EA8FED7C6
:100BE000AD6E23509EA8FED7AD6E0D0E9EA8FED70B
:100BF000AD6E0A0E9EA8FED7AD6E82EF0BF0AAC0B6
:100C0000AEF0A9C0ADF0AEC003F0ADC0E9FFAEC01C
:100C1000EAFFEF522EE0ACC0B0F0ABC0AFF0B0C016
:100C200003F0AFC0E9FFB0C0EAFFEF520AE1A951FB
:100C3000AD5D006EAA51AE59036E00C001F021D027
:100C400010D0ADC0E9FFAEC0EAFFEFCFB1F0B0C049
:100C500003F0AFC0E9FFB0C0EAFFEF50B15D01E1C2
:100C600004D0AF2BD8B4B02BDAD7AD2BD8B4AE2B81
:100C7000CAD7A951AD5D006EAA51AE59036E00C02E
:100C800001F092EF06F0AAC0AEF0A9C0ADF0AEC080
:100C900003F0ADC0E9FFAEC0EAFFEF5228E0ACC000
:100CA000B0F0ABC0AFF0B0C003F0AFC0E9FFB0C070
:100CB000EAFFEF5218E0ADC0E9FFAEC0EAFFEFCFA8
:100CC000B1F0B0C003F0AFC0E9FFB0C0EAFFEF5031
:100CD000B15D05E1ADC001F0AEC002F00BD0AF2BAD
:100CE000D8B4B02BE0D7AD2BD8B4AE2BD0D7000EF4
:100CF000016E026EB1EF06F0A151A21104E0A2C094
:100D000003F0A15103D017C003F01650A56F03C024
:100D1000A6F0A6C0AAF0A5C0A9F0A4C0ACF0A3C0DC
:100D2000ABF06DD70150A527000EA623A6C003F097
:100D3000A5C0E9FFA6C0EAFFEF520AE116C0E9FF2D
:100D400017C0EAFF200EEF6E000E016E026E25D076
:100D5000A6C0AAF0A5C0A9F0A4C0ACF0A3C0ABF097
:100D600092D702C0A8F001C0A7F0A8C003F0A7C0A6
:100D7000E9FFA8C0EAFFEF5208E0A7C0E9FFA8C05A
:100D8000EAFFEF6AA72BD8B4A82BA8C017F0A7C01A
:100D900016F0A5C001F0A6C002F01200A2C0A8F093
:100DA000A1C0A7F0A55302E1A65327E0A4C003F019
:100DB000A3C0E9FFA4C0EAFFEF521FE0A8C003F000
:100DC000A751A72BD8B4A82BA96F03C0AAF0A4C021
:100DD00003F0A351A32BD8B4A42BE96E03C0EAFF00
:100DE000EFCFABF0AAC0EAFFA9C0E9FFABC0EFFFAD
:100DF000A551D8B4A607A507D5D7A55302E1A65398
:100E00000FE0A8C003F0A751A72BD8B4A82BE96E18
:100E100003C0EAFFEF6AA551D8B4A607A507EDD72E
:100E2000A1C001F0A2C002F036EF08F0A851016A9B
:100E3000A75D03E2A7C000F00CD0006A080EA96FFE
:100E4000A7370036A851005CD8B0006E0136A92F34
:100E5000F7D71200200EA2A9300EA36FA1C000F098
:100E6000A1AF08D0001E002A00C0A1F02D0EA36F74
:100E7000A28FA2810150A1C0A7F0640EA86FD6DF97
:100E800000C0A1F0300E0124A46FA1C0A7F00A0E8B
:100E9000A86FCCDF300E0024A66F300E0124A56FA2
:100EA000A3C000F0300EA45D04E0A283A2BFA2851F
:100EB00012D0A3C0A4F0200EA36F300EA55D04E0F5
:100EC000A281A2BFA28307D0D8A4A28104E1A4C0BA
:100ED000A5F0200EA46FA2B505D0A2B307D0A2B191
:100EE00009D00CD0A3519EA8FED7AD6EA4519EA8E8
:100EF000FED7AD6EA5519EA8FED7AD6EA6519EA899
:100F0000FED7AD6E53EF08F0EF5210E0EACFA2F03B
:100F1000E9CFA1F0EF509EA8FED7AD6EA2C0EAFFC8
:100F2000A1C0E9FFE92AD8B4EA2AEED77EEF09F09A
:100F3000856B2A0E866F876B300E986F996F9A6B50
:100F4000A26B2E0EA16FA46B860EA36FD5DE02C01E
:100F500084F001C083F0835303E18453D8B493D069
:100F600085511008D8A08FD08551EF0FD8B07FD011
:100F7000110F5EEF0AF083C0E9FF84C0EAFFEFCFF4
:100F800088F075D083C0E9FF84C0EAFFEFCF90F00E
:100F90006ED083C0E9FF84C0EAFFEFCF89F067D04D
:100FA00083C0E9FF84C0EAFFEFCF91F060D083C037
:100FB000E9FF84C0EAFFEFCF8AF059D083C0E9FF90
:100FC00084C0EAFFEFCF92F052D083C0E9FF84C023
:100FD000EAFFEFCF8BF04BD083C0E9FF84C0EAFF7C
:100FE000EFCF93F044D083C0E9FF84C0EAFFEFCF96
:100FF0008CF03DD083C0E9FF84C0EAFFEFCF94F0CE
:1010000036D083C0E9FF84C0EAFFEFCF8DF02FD048
:1010100083C0E9FF84C0EAFFEFCF95F028D083C0FA
:10102000E9FF84C0EAFFEFCF8EF021D083C0E9FF53
:1010300084C0EAFFEFCF96F01AD083C0E9FF84C0E6
:10104000EAFFEFCF8FF013D083C0E9FF84C0EAFF3F
:10105000EFCF97F00CD0A26B980EA16F84C0A4F0D4
:1010600083C0A3F0A66B080EA56F98D6A06BA26BE9
:10107000A16BA46B860EA36F3FDE02C084F001C09B
:1010800083F0852B68D785510F0816E3B00EF66EF6
:10109000020EF76E160EA16F1BEC02F085C0A1F0D8
:1010A000180EA26FD7D6C80EF66E020EF76E140E8B
:1010B000A16F1BEC02F000D28851310815E1895173
:1010C000320812E18A5133080FE18B5134080CE1E8
:1010D0008C51350809E18D51360806E18E513708EB
:1010E00003E18F51380853E0DE0EF66E020EF76E04
:1010F00058EC02F0080EF66E030EF76E070EA16FA5
:101100001BEC02F088519EA8FED7AD6E200E9EA863
:10111000FED7AD6E89519EA8FED7AD6E200E9EA85B
:10112000FED7AD6E8A519EA8FED7AD6E200E9EA84A
:10113000FED7AD6E8B519EA8FED7AD6E200E9EA839
:10114000FED7AD6E8C519EA8FED7AD6E200E9EA828
:10115000FED7AD6E8D519EA8FED7AD6E200E9EA817
:10116000FED7AD6E8E519EA8FED7AD6E200E9EA806
:10117000FED7AD6E8F519EA8FED7AD6E0D0E9EA808
:10118000FED7AD6E0A0E9EA8FED7AD6E95D190C06B
:10119000A1F04DEC02F001522AE091C0A1F04DEC1B
:1011A00002F0015224E092C0A1F04DEC02F0015295
:1011B0001EE093C0A1F04DEC02F0015218E094C083
:1011C000A1F04DEC02F0015212E095C0A1F04DECFF
:1011D00002F001520CE096C0A1F04DEC02F0015279
:1011E00006E097C0A1F04DEC02F0015237E12A0E63
:1011F000F66E030EF76E58EC02F0520EF66E030E0A
:10120000F76E0A0EA16F1BEC02F090519EA8FED75C
:10121000AD6E91519EA8FED7AD6E92519EA8FED79D
:10122000AD6E93519EA8FED7AD6E94519EA8FED789
:10123000AD6E95519EA8FED7AD6E96519EA8FED775
:10124000AD6E97519EA8FED7AD6E0D0E9EA8FED72F
:10125000AD6E0A0E9EA8FED7AD6E2ED188C073F07B
:1012600089C074F08AC075F08BC076F08CC077F0BE
:101270008DC078F08EC079F08FC07AF090C01CF0ED
:1012800091C01DF092C01EF093C01FF094C020F0DA
:1012900095C021F096C022F097C023F0EA6A6A0E4A
:1012A000E96EE26A980EE16EE752E6CFEEFFFCE1EE
:1012B000700EF66E030EF76E58EC02F08A0EF66EA4
:1012C000030EF76E090EA16F1BEC02F0410E9EA8F3
:1012D000FED7AD6E0D0E9EA8FED7AD6E0A0E9EA86F
:1012E000FED7AD6E980EF66E030EF76E090EA16F67
:1012F0001BEC02F0EA6A6A0EE96E06D60D0E9EA895
:10130000FED7AD6E0A0E9EA8FED7AD6EA60EF66E87
:10131000030EF76E030EA16F1BEC02F073519EA833
:10132000FED7AD6EAB0EF66E030EF76E030EA16F19
:101330001BEC02F01C509EA8FED7AD6EB00EF66EF0
:10134000030EF76E050EA16F1BEC02F074519EA800
:10135000FED7AD6EB70EF66E030EF76E030EA16FDD
:101360001BEC02F01D509EA8FED7AD6EBC0EF66EB3
:10137000030EF76E050EA16F1BEC02F075519EA8CF
:10138000FED7AD6EC30EF66E030EF76E030EA16FA1
:101390001BEC02F01E509EA8FED7AD6EC80EF66E76
:1013A000030EF76E050EA16F1BEC02F076519EA89E
:1013B000FED7AD6ECF0EF66E030EF76E030EA16F65
:1013C0001BEC02F01F509EA8FED7AD6E0D0E9EA81E
:1013D000FED7AD6E0A0E9EA8FED7AD6ED80EF66E85
:1013E000030EF76E030EA16F1BEC02F077519EA85F
:1013F000FED7AD6EDD0EF66E030EF76E030EA16F17
:101400001BEC02F020509EA8FED7AD6EE20EF66EE9
:10141000030EF76E050EA16F1BEC02F078519EA82B
:10142000FED7AD6EE90EF66E030EF76E030EA16FDA
:101430001BEC02F021509EA8FED7AD6EEE0EF66EAC
:10144000030EF76E050EA16F1BEC02F079519EA8FA
:10145000FED7AD6EF50EF66E030EF76E030EA16F9E
:101460001BEC02F022509EA8FED7AD6EFA0EF66E6F
:10147000030EF76E050EA16F1BEC02F07A519EA8C9
:10148000FED7AD6E010EF66E040EF76E030EA16F61
:101490001BEC02F023509EA8FED7AD6E0D0E9EA849
:1014A000FED7AD6E0A0E9EA8FED7AD6E0A0EF66E82
:1014B000040EF76E58EC02F086EF0BF0F2CF0DF051
:1014C000F29EE824F76AF736E10FF66E140EF72263
:1014D0000A00F550FA6E0800F5500DBEF28EF96E56
:1014E000760F840F920FA00FAE0FBC0FCA0FD80F4C
:1014F000E60FF40F021010101E102C103A104810B6
:101500005610EA6A840EE96EEF500DE0060E016E89
:10151000006A002EFED7012EFBD77B0E006E002E38
:10152000FED7EF2EF3D71200836B83510408D8A0A7
:1015300097D094968B86240E9EA8FED7AD6E410E52
:101540009EA8FED7AD6E2C0E9EA8FED7AD6E310EB6
:101550009EA8FED7AD6E2C0E9EA8FED7AD6E1C5079
:101560009EA8FED7AD6E2C0E9EA8FED7AD6E320E95
:101570009EA8FED7AD6E2C0E9EA8FED7AD6E1D5058
:101580009EA8FED7AD6E2C0E9EA8FED7AD6E330E74
:101590009EA8FED7AD6E2C0E9EA8FED7AD6E1E5037
:1015A0009EA8FED7AD6E2C0E9EA8FED7AD6E340E53
:1015B0009EA8FED7AD6E2C0E9EA8FED7AD6E1F5016
:1015C0009EA8FED7AD6E2C0E9EA8FED7AD6E350E32
:1015D0009EA8FED7AD6E2C0E9EA8FED7AD6E2050F5
:1015E0009EA8FED7AD6E2C0E9EA8FED7AD6E360E11
:1015F0009EA8FED7AD6E2C0E9EA8FED7AD6E2150D4
:101600009EA8FED7AD6E2C0E9EA8FED7AD6E370EEF
:101610009EA8FED7AD6E2C0E9EA8FED7AD6E2250B2
:101620009EA8FED7AD6E2C0E9EA8FED7AD6E380ECE
:101630009EA8FED7AD6E2C0E9EA8FED7AD6E235091
:101640009EA8FED7AD6E2C0E9EA8FED7AD6E0A0EDC
:101650009EA8FED7AD6E640E846F53DF832B65D7D3
:1016600094968B96259422EF0CF0F86AD09E078E04
:10167000B886080EAF6E020EB06EA60EAC6E900E5F
:10168000AB6E300E1C6E1D6E1E6E1F6E206E216EB8
:10169000226E236E24902492249424962498249AD3
:1016A000249C249E2590266A276A286A296A2A6A29
:1016B0002B6A2C6A2D6A25927B6B7C6B7D6B7E6B13
:1016C0007F6B806B826B816B2594C150F00BC16E78
:1016D000000E0F01386F396F3A6F776A786A796A4E
:1016E000166A176A936A8A6AFF0E926ECF0E936E1D
:1016F000B80E946E000111EF02F09D8AC00EF21236
:1017000022EF04F025A29ED0259212D41C5031085D
:1017100006E193908A802480020E266E0AD01C5027
:10172000300807E124A005D0265203E193908A9067
:1017300024901D50310806E193928A822482020E81
:10174000276E0AD01D50300807E124A205D0275289
:1017500003E193928A9224921E50310806E19394F9
:101760008A842484020E286E0AD01E50300807E1B5
:1017700024A405D0285203E193948A9424941F5002
:10178000310806E193968A862486020E296E0AD0D5
:101790001F50300807E124A605D0295203E1939693
:1017A0008A9624962050310806E193988A882488E6
:1017B000020E2A6E0AD02050300807E124A805D076
:1017C0002A5203E193988A9824982150310806E11F
:1017D000939A8A8A248A020E2B6E0AD021503008EE
:1017E00007E124AA05D02B5203E1939A8A9A249AFE
:1017F0002250310806E1939C8A8C248C020E2C6EB8
:101800000AD02250300807E124AC05D02C5203E165
:10181000939C8A9C249C2350310806E1939E8A8ED7
:10182000248E020E2D6E0AD02350300807E124AE1C
:1018300005D02D5203E1939E8A9E249E69EC02F00E
:10184000258472D624A009D0265207E11C50300806
:1018500004E193908A902490258024A209D02752F5
:1018600007E11D50300804E193928A92249225806A
:1018700024A409D0285207E11E50300804E19394B3
:101880008A942494258024A609D0295207E11F5068
:10189000300804E193968A962496258024A809D0DE
:1018A0002A5207E12050300804E193988A9824983E
:1018B000258024AA09D02B5207E12150300804E1E9
:1018C000939A8A9A249A258024AC09D02C5207E155
:1018D0002250300804E1939C8A9C249C258024AEED
:1018E00009D02D5207E12350300804E1939E8A9ECF
:1018F000249E258094968B9625A003D0259069EC94
:0C19000002F00A0E846FFDDDFDD603002E
:020000040030CA
:0E00000000E2183C00BD81000FC00FE00F4071
:00000001FF
;PIC18F25K22
;CRC=5252  CREATED="31-Mar-26 09:58"
